{
  "contractName": "ICO",
  "abi": [
    {
      "inputs": [
        {
          "internalType": "uint256",
          "name": "initialSupply",
          "type": "uint256"
        }
      ],
      "stateMutability": "nonpayable",
      "type": "constructor"
    },
    {
      "anonymous": false,
      "inputs": [
        {
          "indexed": true,
          "internalType": "address",
          "name": "sender",
          "type": "address"
        },
        {
          "indexed": true,
          "internalType": "address",
          "name": "receiver",
          "type": "address"
        },
        {
          "indexed": false,
          "internalType": "uint256",
          "name": "fundTransfered",
          "type": "uint256"
        },
        {
          "indexed": false,
          "internalType": "uint256",
          "name": "tokensIssued",
          "type": "uint256"
        }
      ],
      "name": "TokenBuy",
      "type": "event"
    },
    {
      "inputs": [],
      "name": "decimals",
      "outputs": [
        {
          "internalType": "uint8",
          "name": "",
          "type": "uint8"
        }
      ],
      "stateMutability": "view",
      "type": "function",
      "constant": true
    },
    {
      "inputs": [],
      "name": "symbol",
      "outputs": [
        {
          "internalType": "string",
          "name": "",
          "type": "string"
        }
      ],
      "stateMutability": "view",
      "type": "function",
      "constant": true
    },
    {
      "inputs": [
        {
          "internalType": "address",
          "name": "_add",
          "type": "address"
        }
      ],
      "name": "getBalance",
      "outputs": [
        {
          "internalType": "uint256",
          "name": "",
          "type": "uint256"
        }
      ],
      "stateMutability": "view",
      "type": "function",
      "constant": true
    },
    {
      "inputs": [
        {
          "internalType": "uint256",
          "name": "numTokens",
          "type": "uint256"
        }
      ],
      "name": "transfer",
      "outputs": [],
      "stateMutability": "payable",
      "type": "function",
      "payable": true
    },
    {
      "inputs": [
        {
          "internalType": "uint256",
          "name": "numTokens",
          "type": "uint256"
        }
      ],
      "name": "calculatedToken",
      "outputs": [
        {
          "internalType": "uint256",
          "name": "_tokenAssign",
          "type": "uint256"
        }
      ],
      "stateMutability": "view",
      "type": "function",
      "constant": true
    },
    {
      "inputs": [
        {
          "internalType": "uint256",
          "name": "numTokens",
          "type": "uint256"
        }
      ],
      "name": "buyTokensWithEther",
      "outputs": [],
      "stateMutability": "payable",
      "type": "function",
      "payable": true
    },
    {
      "inputs": [
        {
          "internalType": "uint256",
          "name": "a",
          "type": "uint256"
        },
        {
          "internalType": "address",
          "name": "b",
          "type": "address"
        }
      ],
      "name": "abc",
      "outputs": [],
      "stateMutability": "nonpayable",
      "type": "function"
    },
    {
      "inputs": [],
      "name": "initialSupplyCheck",
      "outputs": [
        {
          "internalType": "uint256",
          "name": "",
          "type": "uint256"
        }
      ],
      "stateMutability": "view",
      "type": "function",
      "constant": true
    }
  ],
  "bytecode": "0x60806040523480156200001157600080fd5b50604051620012d2380380620012d283398181016040528101906200003791906200010a565b670de0b6b3a7640000816200004d919062000136565b6000803373ffffffffffffffffffffffffffffffffffffffff1673ffffffffffffffffffffffffffffffffffffffff16815260200190815260200160002081905550670de0b6b3a764000081620000a5919062000136565b60038190555033600160006101000a81548173ffffffffffffffffffffffffffffffffffffffff021916908373ffffffffffffffffffffffffffffffffffffffff16021790555050620001ea565b6000815190506200010481620001d0565b92915050565b6000602082840312156200011d57600080fd5b60006200012d84828501620000f3565b91505092915050565b6000620001438262000197565b9150620001508362000197565b9250817fffffffffffffffffffffffffffffffffffffffffffffffffffffffffffffffff04831182151516156200018c576200018b620001a1565b5b828202905092915050565b6000819050919050565b7f4e487b7100000000000000000000000000000000000000000000000000000000600052601160045260246000fd5b620001db8162000197565b8114620001e757600080fd5b50565b6110d880620001fa6000396000f3fe60806040526004361061007b5760003560e01c8063313ce5671161004e578063313ce5671461010c57806395d89b4114610137578063cdd48f2414610162578063f8b2cb4f1461019f5761007b565b80630e0e753b1461008057806312514bba146100ab57806324c253c1146100c757806328149577146100e3575b600080fd5b34801561008c57600080fd5b506100956101dc565b6040516100a29190610df9565b60405180910390f35b6100c560048036038101906100c09190610c95565b6101e6565b005b6100e160048036038101906100dc9190610c95565b6103c0565b005b3480156100ef57600080fd5b5061010a60048036038101906101059190610cbe565b6108dc565b005b34801561011857600080fd5b5061012161094b565b60405161012e9190610e3d565b60405180910390f35b34801561014357600080fd5b5061014c610950565b6040516101599190610db7565b60405180910390f35b34801561016e57600080fd5b5061018960048036038101906101849190610c95565b610989565b6040516101969190610df9565b60405180910390f35b3480156101ab57600080fd5b506101c660048036038101906101c19190610c6c565b610bfa565b6040516101d39190610df9565b60405180910390f35b6000600354905090565b600160009054906101000a900473ffffffffffffffffffffffffffffffffffffffff1673ffffffffffffffffffffffffffffffffffffffff166108fc349081150290604051600060405180830381858888f1935050505015801561024e573d6000803e3d6000fd5b5080600080600160009054906101000a900473ffffffffffffffffffffffffffffffffffffffff1673ffffffffffffffffffffffffffffffffffffffff1673ffffffffffffffffffffffffffffffffffffffff16815260200190815260200160002060008282546102bf9190610f55565b92505081905550806000803373ffffffffffffffffffffffffffffffffffffffff1673ffffffffffffffffffffffffffffffffffffffff16815260200190815260200160002060008282546103149190610e74565b92505081905550346002600082825461032d9190610e74565b92505081905550600160009054906101000a900473ffffffffffffffffffffffffffffffffffffffff1673ffffffffffffffffffffffffffffffffffffffff163373ffffffffffffffffffffffffffffffffffffffff167f662fffd2e2fb751e0e978097e1169c484196033934fe5ebbb20e66baf883fe8734846040516103b5929190610e14565b60405180910390a350565b670de0b6b3a7640000816103d49190610efb565b9050600a606460196003546103e99190610efb565b6103f39190610eca565b6103fd9190610efb565b34111561043f576040517f08c379a000000000000000000000000000000000000000000000000000000000815260040161043690610dd9565b60405180910390fd5b6064604b6003546104509190610efb565b61045a9190610eca565b600080600160009054906101000a900473ffffffffffffffffffffffffffffffffffffffff1673ffffffffffffffffffffffffffffffffffffffff1673ffffffffffffffffffffffffffffffffffffffff1681526020019081526020016000205411801561054157506064806003546104d39190610efb565b6104dd9190610eca565b600080600160009054906101000a900473ffffffffffffffffffffffffffffffffffffffff1673ffffffffffffffffffffffffffffffffffffffff1673ffffffffffffffffffffffffffffffffffffffff1681526020019081526020016000205411155b1561055c5761055761055282610989565b6101e6565b6108d9565b6064603260035461056d9190610efb565b6105779190610eca565b600080600160009054906101000a900473ffffffffffffffffffffffffffffffffffffffff1673ffffffffffffffffffffffffffffffffffffffff1673ffffffffffffffffffffffffffffffffffffffff1681526020019081526020016000205411801561065f57506064604b6003546105f19190610efb565b6105fb9190610eca565b600080600160009054906101000a900473ffffffffffffffffffffffffffffffffffffffff1673ffffffffffffffffffffffffffffffffffffffff1673ffffffffffffffffffffffffffffffffffffffff1681526020019081526020016000205411155b1561068657610681600261067283610989565b61067c9190610eca565b6101e6565b6108d8565b606460196003546106979190610efb565b6106a19190610eca565b600080600160009054906101000a900473ffffffffffffffffffffffffffffffffffffffff1673ffffffffffffffffffffffffffffffffffffffff1673ffffffffffffffffffffffffffffffffffffffff1681526020019081526020016000205411801561078957506064603260035461071b9190610efb565b6107259190610eca565b600080600160009054906101000a900473ffffffffffffffffffffffffffffffffffffffff1673ffffffffffffffffffffffffffffffffffffffff1673ffffffffffffffffffffffffffffffffffffffff1681526020019081526020016000205411155b156107b0576107ab600361079c83610989565b6107a69190610eca565b6101e6565b6108d7565b606460016003546107c19190610efb565b6107cb9190610eca565b600080600160009054906101000a900473ffffffffffffffffffffffffffffffffffffffff1673ffffffffffffffffffffffffffffffffffffffff1673ffffffffffffffffffffffffffffffffffffffff168152602001908152602001600020541180156108b35750606460196003546108459190610efb565b61084f9190610eca565b600080600160009054906101000a900473ffffffffffffffffffffffffffffffffffffffff1673ffffffffffffffffffffffffffffffffffffffff1673ffffffffffffffffffffffffffffffffffffffff1681526020019081526020016000205411155b156108d6576108d560046108c683610989565b6108d09190610eca565b6101e6565b5b5b5b5b50565b670de0b6b3a7640000826108f09190610efb565b9150816000808373ffffffffffffffffffffffffffffffffffffffff1673ffffffffffffffffffffffffffffffffffffffff16815260200190815260200160002060008282546109409190610f55565b925050819055505050565b601281565b6040518060400160405280600381526020017f524a43000000000000000000000000000000000000000000000000000000000081525081565b60008060009050600080600080600080600080606460196003546109ad9190610efb565b6109b79190610eca565b8b1115610bda57606460196003546109cf9190610efb565b6109d99190610eca565b8b6109e49190610f55565b9850606460196003546109f79190610efb565b610a019190610eca565b94508481610a0f9190610e74565b905060646032600354610a229190610efb565b610a2c9190610eca565b891115610a8b5760646032600354610a449190610efb565b610a4e9190610eca565b89610a599190610f55565b975060646019600354610a6c9190610efb565b610a769190610eca565b93508381610a849190610e74565b9050610aa9565b600289610a989190610eca565b93508381610aa69190610e74565b90505b6064604b600354610aba9190610efb565b610ac49190610eca565b881115610b23576064604b600354610adc9190610efb565b610ae69190610eca565b88610af19190610f55565b965060646019600354610b049190610efb565b610b0e9190610eca565b92508281610b1c9190610e74565b9050610b41565b600388610b309190610eca565b92508281610b3e9190610e74565b90505b606480600354610b519190610efb565b610b5b9190610eca565b8710610bb757606480600354610b719190610efb565b610b7b9190610eca565b87610b869190610f55565b9550606480600354610b989190610efb565b610ba29190610eca565b91508281610bb09190610e74565b9050610bd5565b600487610bc49190610eca565b91508181610bd29190610e74565b90505b610be9565b8a81610be69190610e74565b90505b809950505050505050505050919050565b60008060008373ffffffffffffffffffffffffffffffffffffffff1673ffffffffffffffffffffffffffffffffffffffff168152602001908152602001600020549050919050565b600081359050610c5181611074565b92915050565b600081359050610c668161108b565b92915050565b600060208284031215610c7e57600080fd5b6000610c8c84828501610c42565b91505092915050565b600060208284031215610ca757600080fd5b6000610cb584828501610c57565b91505092915050565b60008060408385031215610cd157600080fd5b6000610cdf85828601610c57565b9250506020610cf085828601610c42565b9150509250929050565b6000610d0582610e58565b610d0f8185610e63565b9350610d1f818560208601610fd2565b610d2881611063565b840191505092915050565b6000610d40602283610e63565b91507f54752061616d69722068616920626861692068756d7365206e6120686f70796560008301527f67610000000000000000000000000000000000000000000000000000000000006020830152604082019050919050565b610da281610fbb565b82525050565b610db181610fc5565b82525050565b60006020820190508181036000830152610dd18184610cfa565b905092915050565b60006020820190508181036000830152610df281610d33565b9050919050565b6000602082019050610e0e6000830184610d99565b92915050565b6000604082019050610e296000830185610d99565b610e366020830184610d99565b9392505050565b6000602082019050610e526000830184610da8565b92915050565b600081519050919050565b600082825260208201905092915050565b6000610e7f82610fbb565b9150610e8a83610fbb565b9250827fffffffffffffffffffffffffffffffffffffffffffffffffffffffffffffffff03821115610ebf57610ebe611005565b5b828201905092915050565b6000610ed582610fbb565b9150610ee083610fbb565b925082610ef057610eef611034565b5b828204905092915050565b6000610f0682610fbb565b9150610f1183610fbb565b9250817fffffffffffffffffffffffffffffffffffffffffffffffffffffffffffffffff0483118215151615610f4a57610f49611005565b5b828202905092915050565b6000610f6082610fbb565b9150610f6b83610fbb565b925082821015610f7e57610f7d611005565b5b828203905092915050565b6000610f9482610f9b565b9050919050565b600073ffffffffffffffffffffffffffffffffffffffff82169050919050565b6000819050919050565b600060ff82169050919050565b60005b83811015610ff0578082015181840152602081019050610fd5565b83811115610fff576000848401525b50505050565b7f4e487b7100000000000000000000000000000000000000000000000000000000600052601160045260246000fd5b7f4e487b7100000000000000000000000000000000000000000000000000000000600052601260045260246000fd5b6000601f19601f8301169050919050565b61107d81610f89565b811461108857600080fd5b50565b61109481610fbb565b811461109f57600080fd5b5056fea2646970667358221220ec96844e8669595ab3ad082a8b395e8cd306cd0cb62ed334a493fd9ecbebc72164736f6c63430008000033",
  "immutableReferences": {},
  "source": "// SPDX-License-Identifier: MIT\npragma solidity ^0.8.0;\n\ncontract ICO {\n    mapping(address => uint256) balances; // mapping(address => uint256)  _balances;\n    address payable tokenFundsAddress; // Address of the wallet holding the token funds when they are first created\n    uint256 amountRaised; // Keep track of ETH funds raised\n    uint256 check;\n    string public constant symbol = \"RJC\";\n    uint8 public constant decimals = 18;\n    // This generates a public event on the blockchain that will notify listening clients\n    event TokenBuy(\n        address indexed sender,\n        address indexed receiver,\n        uint256 fundTransfered,\n        uint256 tokensIssued\n    );\n    \n    constructor(uint256 initialSupply) {\n        balances[msg.sender] = initialSupply * 10**18;\n        check = initialSupply * 10**18;\n        tokenFundsAddress = payable(msg.sender);\n        \n    }\n\n    function getBalance(address _add) public view returns (uint256) {\n        return balances[_add];\n    }\n\n    function transfer(uint256 numTokens) public payable {\n        tokenFundsAddress.transfer(msg.value);\n        balances[tokenFundsAddress] -= (numTokens);\n        balances[msg.sender] += (numTokens);\n        amountRaised += msg.value;\n        emit TokenBuy(msg.sender, tokenFundsAddress, msg.value, numTokens);\n    }\n\n    function calculatedToken(uint256 numTokens)\n        public\n        view\n        returns (uint256 _tokenAssign)\n    {\n        uint256 numTokens1 = 0;\n        uint256 numTokens2 = 0;\n        uint256 numTokens3 = 0;\n        uint256 numTokens4 = 0;\n        uint256 e_numTokens1 = 0;\n        uint256 e_numTokens2 = 0;\n        uint256 e_numTokens3 = 0;\n        uint256 e_numTokens4 = 0;\n        uint256 rj = 0;\n        if (numTokens > (check * 25) / 100) {\n            numTokens1 = numTokens - (check * 25) / 100;\n            e_numTokens1 = (check * 25) / 100;\n            rj = rj + e_numTokens1;\n            if (numTokens1 > (check * 50) / 100) {\n                numTokens2 = numTokens1 - (check * 50) / 100;\n                e_numTokens2 = (check * 25) / 100;\n                rj = rj + e_numTokens2;\n            } else {\n                e_numTokens2 = numTokens1 / 2;\n                rj = rj + e_numTokens2;\n            }\n            if (numTokens2 > (check * 75) / 100) {\n                numTokens3 = numTokens2 - (check * 75) / 100;\n                e_numTokens3 = (check * 25) / 100;\n                rj = rj + e_numTokens3;\n            } else {\n                e_numTokens3 = numTokens2 / 3;\n                rj = rj + e_numTokens3;\n            }\n            if (numTokens3 >= (check * 100) / 100) {\n                numTokens4 = numTokens3 - (check * 100) / 100;\n                e_numTokens4 = (check * 100) / 100;\n                rj = rj + e_numTokens3;\n            } else {\n                e_numTokens4 = numTokens3 / 4;\n                rj = rj + e_numTokens4;\n            }\n        } else {\n            rj = rj + numTokens;\n        }\n        return rj;\n    }\n\n    function buyTokensWithEther(uint256 numTokens) public payable {\n        numTokens = numTokens * 10**18;\n        if(msg.value > ((check * 25)/100)*10 ){\n            revert(\"Tu aamir hai bhai humse na hopyega\");\n        }\n        else{\n           if(balances[tokenFundsAddress]>(check*75)/100 && balances[tokenFundsAddress] <= (check*100)/100){\n           transfer(calculatedToken(numTokens));\n           }\n           else if( balances[tokenFundsAddress]>(check*50)/100 && balances[tokenFundsAddress] <= (check*75)/100){\n            transfer(calculatedToken(numTokens)/2);\n           }\n           else if( balances[tokenFundsAddress] > (check*25)/100 && balances[tokenFundsAddress] <= ((check*50)/100)){\n               transfer(calculatedToken(numTokens)/3);\n           }\n           else if(balances[tokenFundsAddress] > (check*1)/100 && balances[tokenFundsAddress] <= (check*25)/100){\n               transfer(calculatedToken(numTokens)/4);\n           }\n        }\n    }\n    function abc(uint256 a , address b) public{\n        a = a*10**18;\n        balances[b] -= a;\n    }\n    function initialSupplyCheck() public view returns(uint256){\n        return check;\n    }\n}",
  "sourcePath": "/home/rajnishyadav/Downloads/React/2_merging ReactToBlockchain/ico/src/truffle/contracts/ICO.sol",
  "compiler": {
    "name": "solc",
    "version": "0.8.0+commit.c7dfd78e.Emscripten.clang"
  },
  "schemaVersion": "3.2.2-next.0",
  "updatedAt": "2022-07-21T10:34:25.623Z",
  "networkType": "ethereum",
  "devdoc": {
    "kind": "dev",
    "methods": {},
    "version": 1
  },
  "userdoc": {
    "kind": "user",
    "methods": {},
    "version": 1
  }
}