{
  "contractName": "ICO",
  "abi": [
    {
      "inputs": [
        {
          "internalType": "uint256",
          "name": "initialSupply",
          "type": "uint256"
        }
      ],
      "stateMutability": "nonpayable",
      "type": "constructor"
    },
    {
      "anonymous": false,
      "inputs": [
        {
          "indexed": true,
          "internalType": "address",
          "name": "owner",
          "type": "address"
        },
        {
          "indexed": true,
          "internalType": "address",
          "name": "spender",
          "type": "address"
        },
        {
          "indexed": false,
          "internalType": "uint256",
          "name": "value",
          "type": "uint256"
        }
      ],
      "name": "Approval",
      "type": "event"
    },
    {
      "anonymous": false,
      "inputs": [
        {
          "indexed": true,
          "internalType": "address",
          "name": "sender",
          "type": "address"
        },
        {
          "indexed": true,
          "internalType": "address",
          "name": "receiver",
          "type": "address"
        },
        {
          "indexed": false,
          "internalType": "uint256",
          "name": "fundTransfered",
          "type": "uint256"
        },
        {
          "indexed": false,
          "internalType": "uint256",
          "name": "tokensIssued",
          "type": "uint256"
        }
      ],
      "name": "TokenBuy",
      "type": "event"
    },
    {
      "anonymous": false,
      "inputs": [
        {
          "indexed": true,
          "internalType": "address",
          "name": "from",
          "type": "address"
        },
        {
          "indexed": true,
          "internalType": "address",
          "name": "to",
          "type": "address"
        },
        {
          "indexed": false,
          "internalType": "uint256",
          "name": "value",
          "type": "uint256"
        }
      ],
      "name": "Transfer",
      "type": "event"
    },
    {
      "inputs": [],
      "name": "decimals",
      "outputs": [
        {
          "internalType": "uint8",
          "name": "",
          "type": "uint8"
        }
      ],
      "stateMutability": "view",
      "type": "function",
      "constant": true
    },
    {
      "inputs": [],
      "name": "name",
      "outputs": [
        {
          "internalType": "string",
          "name": "",
          "type": "string"
        }
      ],
      "stateMutability": "view",
      "type": "function",
      "constant": true
    },
    {
      "inputs": [
        {
          "internalType": "uint256",
          "name": "",
          "type": "uint256"
        }
      ],
      "name": "savingData",
      "outputs": [
        {
          "internalType": "address",
          "name": "",
          "type": "address"
        }
      ],
      "stateMutability": "view",
      "type": "function",
      "constant": true
    },
    {
      "inputs": [],
      "name": "symbol",
      "outputs": [
        {
          "internalType": "string",
          "name": "",
          "type": "string"
        }
      ],
      "stateMutability": "view",
      "type": "function",
      "constant": true
    },
    {
      "inputs": [],
      "name": "totalSupply",
      "outputs": [
        {
          "internalType": "uint256",
          "name": "",
          "type": "uint256"
        }
      ],
      "stateMutability": "view",
      "type": "function",
      "constant": true
    },
    {
      "inputs": [
        {
          "internalType": "address",
          "name": "tokenOwner",
          "type": "address"
        }
      ],
      "name": "balanceOf",
      "outputs": [
        {
          "internalType": "uint256",
          "name": "",
          "type": "uint256"
        }
      ],
      "stateMutability": "view",
      "type": "function",
      "constant": true
    },
    {
      "inputs": [
        {
          "internalType": "uint256",
          "name": "numTokens",
          "type": "uint256"
        }
      ],
      "name": "transfer",
      "outputs": [
        {
          "internalType": "bool",
          "name": "",
          "type": "bool"
        }
      ],
      "stateMutability": "payable",
      "type": "function",
      "payable": true
    },
    {
      "inputs": [
        {
          "internalType": "uint256",
          "name": "numTokens",
          "type": "uint256"
        }
      ],
      "name": "calculatedToken",
      "outputs": [
        {
          "internalType": "uint256",
          "name": "_tokenAssign",
          "type": "uint256"
        }
      ],
      "stateMutability": "view",
      "type": "function",
      "constant": true
    },
    {
      "inputs": [
        {
          "internalType": "uint256",
          "name": "numTokens",
          "type": "uint256"
        }
      ],
      "name": "buyTokensWithEther",
      "outputs": [],
      "stateMutability": "payable",
      "type": "function",
      "payable": true
    },
    {
      "inputs": [],
      "name": "initialSupplyCheck",
      "outputs": [
        {
          "internalType": "uint256",
          "name": "",
          "type": "uint256"
        }
      ],
      "stateMutability": "view",
      "type": "function",
      "constant": true
    },
    {
      "inputs": [
        {
          "internalType": "address",
          "name": "delegate",
          "type": "address"
        },
        {
          "internalType": "uint256",
          "name": "numTokens",
          "type": "uint256"
        }
      ],
      "name": "approve",
      "outputs": [
        {
          "internalType": "bool",
          "name": "",
          "type": "bool"
        }
      ],
      "stateMutability": "nonpayable",
      "type": "function"
    },
    {
      "inputs": [
        {
          "internalType": "address",
          "name": "owner",
          "type": "address"
        },
        {
          "internalType": "address",
          "name": "delegate",
          "type": "address"
        }
      ],
      "name": "allowance",
      "outputs": [
        {
          "internalType": "uint256",
          "name": "",
          "type": "uint256"
        }
      ],
      "stateMutability": "view",
      "type": "function",
      "constant": true
    },
    {
      "inputs": [
        {
          "internalType": "address",
          "name": "owner",
          "type": "address"
        },
        {
          "internalType": "address",
          "name": "buyer",
          "type": "address"
        },
        {
          "internalType": "uint256",
          "name": "numTokens",
          "type": "uint256"
        }
      ],
      "name": "transferFrom",
      "outputs": [
        {
          "internalType": "bool",
          "name": "",
          "type": "bool"
        }
      ],
      "stateMutability": "nonpayable",
      "type": "function"
    },
    {
      "inputs": [],
      "name": "ownerId",
      "outputs": [
        {
          "internalType": "address",
          "name": "",
          "type": "address"
        }
      ],
      "stateMutability": "view",
      "type": "function",
      "constant": true
    },
    {
      "inputs": [
        {
          "internalType": "uint256",
          "name": "_x",
          "type": "uint256"
        }
      ],
      "name": "tokenBadha",
      "outputs": [],
      "stateMutability": "nonpayable",
      "type": "function"
    },
    {
      "inputs": [
        {
          "internalType": "uint256",
          "name": "_x",
          "type": "uint256"
        }
      ],
      "name": "tokenGhata",
      "outputs": [],
      "stateMutability": "nonpayable",
      "type": "function"
    }
  ],
  "bytecode": "0x6080604052683635c9adc5dea000006006553480156200001e57600080fd5b506040516200216638038062002166833981810160405281019062000044919062000280565b6040518060400160405280601281526020017f524154414e5f4a455448414c415f434f494e00000000000000000000000000008152506000908051906020019062000091929190620001b9565b506040518060400160405280600381526020017f524a43000000000000000000000000000000000000000000000000000000000081525060019080519060200190620000df929190620001b9565b506012600260006101000a81548160ff021916908360ff160217905550670de0b6b3a764000081620001129190620002ac565b600460003373ffffffffffffffffffffffffffffffffffffffff1673ffffffffffffffffffffffffffffffffffffffff16815260200190815260200160002081905550670de0b6b3a7640000816200016b9190620002ac565b60038190555033600260016101000a81548173ffffffffffffffffffffffffffffffffffffffff021916908373ffffffffffffffffffffffffffffffffffffffff16021790555050620003c5565b828054620001c79062000317565b90600052602060002090601f016020900481019282620001eb576000855562000237565b82601f106200020657805160ff191683800117855562000237565b8280016001018555821562000237579182015b828111156200023657825182559160200191906001019062000219565b5b5090506200024691906200024a565b5090565b5b80821115620002655760008160009055506001016200024b565b5090565b6000815190506200027a81620003ab565b92915050565b6000602082840312156200029357600080fd5b6000620002a38482850162000269565b91505092915050565b6000620002b9826200030d565b9150620002c6836200030d565b9250817fffffffffffffffffffffffffffffffffffffffffffffffffffffffffffffffff04831182151516156200030257620003016200034d565b5b828202905092915050565b6000819050919050565b600060028204905060018216806200033057607f821691505b602082108114156200034757620003466200037c565b5b50919050565b7f4e487b7100000000000000000000000000000000000000000000000000000000600052601160045260246000fd5b7f4e487b7100000000000000000000000000000000000000000000000000000000600052602260045260246000fd5b620003b6816200030d565b8114620003c257600080fd5b50565b611d9180620003d56000396000f3fe6080604052600436106100f35760003560e01c8063313ce5671161008a578063b8bac60f11610059578063b8bac60f1461033a578063cdd48f2414610363578063dd62ed3e146103a0578063fb57503f146103dd576100f3565b8063313ce5671461026a57806370a082311461029557806395d89b41146102d2578063abb36d43146102fd576100f3565b806312514bba116100c657806312514bba146101b657806318160ddd146101e657806323b872dd1461021157806324c253c11461024e576100f3565b8063019c08f5146100f857806306fdde0314610123578063095ea7b31461014e5780630e0e753b1461018b575b600080fd5b34801561010457600080fd5b5061010d610406565b60405161011a91906119ad565b60405180910390f35b34801561012f57600080fd5b50610138610430565b60405161014591906119e3565b60405180910390f35b34801561015a57600080fd5b506101756004803603810190610170919061182d565b6104be565b60405161018291906119c8565b60405180910390f35b34801561019757600080fd5b506101a06105f4565b6040516101ad9190611a45565b60405180910390f35b6101d060048036038101906101cb9190611869565b6105fe565b6040516101dd91906119c8565b60405180910390f35b3480156101f257600080fd5b506101fb6107c9565b6040516102089190611a45565b60405180910390f35b34801561021d57600080fd5b50610238600480360381019061023391906117de565b6107d3565b60405161024591906119c8565b60405180910390f35b61026860048036038101906102639190611869565b610ba4565b005b34801561027657600080fd5b5061027f6110cc565b60405161028c9190611a89565b60405180910390f35b3480156102a157600080fd5b506102bc60048036038101906102b79190611779565b6110df565b6040516102c99190611a45565b60405180910390f35b3480156102de57600080fd5b506102e7611128565b6040516102f491906119e3565b60405180910390f35b34801561030957600080fd5b50610324600480360381019061031f9190611869565b6111b6565b60405161033191906119ad565b60405180910390f35b34801561034657600080fd5b50610361600480360381019061035c9190611869565b6111f5565b005b34801561036f57600080fd5b5061038a60048036038101906103859190611869565b611326565b6040516103979190611a45565b60405180910390f35b3480156103ac57600080fd5b506103c760048036038101906103c291906117a2565b611597565b6040516103d49190611a45565b60405180910390f35b3480156103e957600080fd5b5061040460048036038101906103ff9190611869565b61161e565b005b6000600260019054906101000a900473ffffffffffffffffffffffffffffffffffffffff16905090565b6000805461043d90611c5d565b80601f016020809104026020016040519081016040528092919081815260200182805461046990611c5d565b80156104b65780601f1061048b576101008083540402835291602001916104b6565b820191906000526020600020905b81548152906001019060200180831161049957829003601f168201915b505050505081565b60008160056000600260019054906101000a900473ffffffffffffffffffffffffffffffffffffffff1673ffffffffffffffffffffffffffffffffffffffff1673ffffffffffffffffffffffffffffffffffffffff16815260200190815260200160002060008573ffffffffffffffffffffffffffffffffffffffff1673ffffffffffffffffffffffffffffffffffffffff168152602001908152602001600020819055508273ffffffffffffffffffffffffffffffffffffffff16600260019054906101000a900473ffffffffffffffffffffffffffffffffffffffff1673ffffffffffffffffffffffffffffffffffffffff167f8c5be1e5ebec7d5bd14f71427d1e84f3dd0314c0f7b2291e5b200ac8c7c3b925846040516105e29190611a45565b60405180910390a36001905092915050565b6000600354905090565b6000600260019054906101000a900473ffffffffffffffffffffffffffffffffffffffff1673ffffffffffffffffffffffffffffffffffffffff166108fc349081150290604051600060405180830381858888f19350505050158015610668573d6000803e3d6000fd5b508160046000600260019054906101000a900473ffffffffffffffffffffffffffffffffffffffff1673ffffffffffffffffffffffffffffffffffffffff1673ffffffffffffffffffffffffffffffffffffffff16815260200190815260200160002060008282546106da9190611ba1565b9250508190555081600460003373ffffffffffffffffffffffffffffffffffffffff1673ffffffffffffffffffffffffffffffffffffffff16815260200190815260200160002060008282546107309190611ac0565b92505081905550600260019054906101000a900473ffffffffffffffffffffffffffffffffffffffff1673ffffffffffffffffffffffffffffffffffffffff163373ffffffffffffffffffffffffffffffffffffffff167f662fffd2e2fb751e0e978097e1169c484196033934fe5ebbb20e66baf883fe8734856040516107b8929190611a60565b60405180910390a360019050919050565b6000600654905090565b6000600460008573ffffffffffffffffffffffffffffffffffffffff1673ffffffffffffffffffffffffffffffffffffffff1681526020019081526020016000205482111561082157600080fd5b600560008573ffffffffffffffffffffffffffffffffffffffff1673ffffffffffffffffffffffffffffffffffffffff1681526020019081526020016000206000600260019054906101000a900473ffffffffffffffffffffffffffffffffffffffff1673ffffffffffffffffffffffffffffffffffffffff1673ffffffffffffffffffffffffffffffffffffffff168152602001908152602001600020548211156108cc57600080fd5b81600460008673ffffffffffffffffffffffffffffffffffffffff1673ffffffffffffffffffffffffffffffffffffffff168152602001908152602001600020546109179190611ba1565b600460008673ffffffffffffffffffffffffffffffffffffffff1673ffffffffffffffffffffffffffffffffffffffff1681526020019081526020016000208190555081600560008673ffffffffffffffffffffffffffffffffffffffff1673ffffffffffffffffffffffffffffffffffffffff1681526020019081526020016000206000600260019054906101000a900473ffffffffffffffffffffffffffffffffffffffff1673ffffffffffffffffffffffffffffffffffffffff1673ffffffffffffffffffffffffffffffffffffffff16815260200190815260200160002054610a049190611ba1565b600560008673ffffffffffffffffffffffffffffffffffffffff1673ffffffffffffffffffffffffffffffffffffffff1681526020019081526020016000206000600260019054906101000a900473ffffffffffffffffffffffffffffffffffffffff1673ffffffffffffffffffffffffffffffffffffffff1673ffffffffffffffffffffffffffffffffffffffff1681526020019081526020016000208190555081600460008573ffffffffffffffffffffffffffffffffffffffff1673ffffffffffffffffffffffffffffffffffffffff16815260200190815260200160002054610af19190611ac0565b600460008573ffffffffffffffffffffffffffffffffffffffff1673ffffffffffffffffffffffffffffffffffffffff168152602001908152602001600020819055508273ffffffffffffffffffffffffffffffffffffffff168473ffffffffffffffffffffffffffffffffffffffff167fddf252ad1be2c89b69c2b068fc378daa952ba7f163c4a11628f55a4df523b3ef84604051610b919190611a45565b60405180910390a3600190509392505050565b670de0b6b3a764000081610bb89190611b47565b9050600a60646019600354610bcd9190611b47565b610bd79190611b16565b610be19190611b47565b341115610c23576040517f08c379a0000000000000000000000000000000000000000000000000000000008152600401610c1a90611a25565b60405180910390fd5b6064604b600354610c349190611b47565b610c3e9190611b16565b60046000600260019054906101000a900473ffffffffffffffffffffffffffffffffffffffff1673ffffffffffffffffffffffffffffffffffffffff1673ffffffffffffffffffffffffffffffffffffffff16815260200190815260200160002054118015610d275750606480600354610cb89190611b47565b610cc29190611b16565b60046000600260019054906101000a900473ffffffffffffffffffffffffffffffffffffffff1673ffffffffffffffffffffffffffffffffffffffff1673ffffffffffffffffffffffffffffffffffffffff1681526020019081526020016000205411155b15610d4357610d3d610d3882611326565b6105fe565b506110c9565b60646032600354610d549190611b47565b610d5e9190611b16565b60046000600260019054906101000a900473ffffffffffffffffffffffffffffffffffffffff1673ffffffffffffffffffffffffffffffffffffffff1673ffffffffffffffffffffffffffffffffffffffff16815260200190815260200160002054118015610e4857506064604b600354610dd99190611b47565b610de39190611b16565b60046000600260019054906101000a900473ffffffffffffffffffffffffffffffffffffffff1673ffffffffffffffffffffffffffffffffffffffff1673ffffffffffffffffffffffffffffffffffffffff1681526020019081526020016000205411155b15610e7057610e6a6002610e5b83611326565b610e659190611b16565b6105fe565b506110c8565b60646019600354610e819190611b47565b610e8b9190611b16565b60046000600260019054906101000a900473ffffffffffffffffffffffffffffffffffffffff1673ffffffffffffffffffffffffffffffffffffffff1673ffffffffffffffffffffffffffffffffffffffff16815260200190815260200160002054118015610f75575060646032600354610f069190611b47565b610f109190611b16565b60046000600260019054906101000a900473ffffffffffffffffffffffffffffffffffffffff1673ffffffffffffffffffffffffffffffffffffffff1673ffffffffffffffffffffffffffffffffffffffff1681526020019081526020016000205411155b15610f9d57610f976003610f8883611326565b610f929190611b16565b6105fe565b506110c7565b60646001600354610fae9190611b47565b610fb89190611b16565b60046000600260019054906101000a900473ffffffffffffffffffffffffffffffffffffffff1673ffffffffffffffffffffffffffffffffffffffff1673ffffffffffffffffffffffffffffffffffffffff168152602001908152602001600020541180156110a25750606460196003546110339190611b47565b61103d9190611b16565b60046000600260019054906101000a900473ffffffffffffffffffffffffffffffffffffffff1673ffffffffffffffffffffffffffffffffffffffff1673ffffffffffffffffffffffffffffffffffffffff1681526020019081526020016000205411155b156110c6576110c460046110b583611326565b6110bf9190611b16565b6105fe565b505b5b5b5b50565b600260009054906101000a900460ff1681565b6000600460008373ffffffffffffffffffffffffffffffffffffffff1673ffffffffffffffffffffffffffffffffffffffff168152602001908152602001600020549050919050565b6001805461113590611c5d565b80601f016020809104026020016040519081016040528092919081815260200182805461116190611c5d565b80156111ae5780601f10611183576101008083540402835291602001916111ae565b820191906000526020600020905b81548152906001019060200180831161119157829003601f168201915b505050505081565b600781815481106111c657600080fd5b906000526020600020016000915054906101000a900473ffffffffffffffffffffffffffffffffffffffff1681565b600260019054906101000a900473ffffffffffffffffffffffffffffffffffffffff1673ffffffffffffffffffffffffffffffffffffffff16600260019054906101000a900473ffffffffffffffffffffffffffffffffffffffff1673ffffffffffffffffffffffffffffffffffffffff16146112a7576040517f08c379a000000000000000000000000000000000000000000000000000000000815260040161129e90611a05565b60405180910390fd5b806006546112b59190611ba1565b60068190555060065460046000600260019054906101000a900473ffffffffffffffffffffffffffffffffffffffff1673ffffffffffffffffffffffffffffffffffffffff1673ffffffffffffffffffffffffffffffffffffffff1681526020019081526020016000208190555050565b600080600090506000806000806000806000806064601960035461134a9190611b47565b6113549190611b16565b8b1115611577576064601960035461136c9190611b47565b6113769190611b16565b8b6113819190611ba1565b9850606460196003546113949190611b47565b61139e9190611b16565b945084816113ac9190611ac0565b9050606460326003546113bf9190611b47565b6113c99190611b16565b89111561142857606460326003546113e19190611b47565b6113eb9190611b16565b896113f69190611ba1565b9750606460196003546114099190611b47565b6114139190611b16565b935083816114219190611ac0565b9050611446565b6002896114359190611b16565b935083816114439190611ac0565b90505b6064604b6003546114579190611b47565b6114619190611b16565b8811156114c0576064604b6003546114799190611b47565b6114839190611b16565b8861148e9190611ba1565b9650606460196003546114a19190611b47565b6114ab9190611b16565b925082816114b99190611ac0565b90506114de565b6003886114cd9190611b16565b925082816114db9190611ac0565b90505b6064806003546114ee9190611b47565b6114f89190611b16565b87106115545760648060035461150e9190611b47565b6115189190611b16565b876115239190611ba1565b95506064806003546115359190611b47565b61153f9190611b16565b9150828161154d9190611ac0565b9050611572565b6004876115619190611b16565b9150818161156f9190611ac0565b90505b611586565b8a816115839190611ac0565b90505b809950505050505050505050919050565b6000600560008473ffffffffffffffffffffffffffffffffffffffff1673ffffffffffffffffffffffffffffffffffffffff16815260200190815260200160002060008373ffffffffffffffffffffffffffffffffffffffff1673ffffffffffffffffffffffffffffffffffffffff16815260200190815260200160002054905092915050565b600260019054906101000a900473ffffffffffffffffffffffffffffffffffffffff1673ffffffffffffffffffffffffffffffffffffffff16600260019054906101000a900473ffffffffffffffffffffffffffffffffffffffff1673ffffffffffffffffffffffffffffffffffffffff16146116d0576040517f08c379a00000000000000000000000000000000000000000000000000000000081526004016116c790611a05565b60405180910390fd5b806006546116de9190611ac0565b60068190555060065460046000600260019054906101000a900473ffffffffffffffffffffffffffffffffffffffff1673ffffffffffffffffffffffffffffffffffffffff1673ffffffffffffffffffffffffffffffffffffffff1681526020019081526020016000208190555050565b60008135905061175e81611d2d565b92915050565b60008135905061177381611d44565b92915050565b60006020828403121561178b57600080fd5b60006117998482850161174f565b91505092915050565b600080604083850312156117b557600080fd5b60006117c38582860161174f565b92505060206117d48582860161174f565b9150509250929050565b6000806000606084860312156117f357600080fd5b60006118018682870161174f565b93505060206118128682870161174f565b925050604061182386828701611764565b9150509250925092565b6000806040838503121561184057600080fd5b600061184e8582860161174f565b925050602061185f85828601611764565b9150509250929050565b60006020828403121561187b57600080fd5b600061188984828501611764565b91505092915050565b61189b81611bd5565b82525050565b6118aa81611be7565b82525050565b60006118bb82611aa4565b6118c58185611aaf565b93506118d5818560208601611c2a565b6118de81611d1c565b840191505092915050565b60006118f6601183611aaf565b91507f796f7520417265204e6f74204f776e65720000000000000000000000000000006000830152602082019050919050565b6000611936602283611aaf565b91507f54752061616d69722068616920626861692068756d7365206e6120686f70796560008301527f67610000000000000000000000000000000000000000000000000000000000006020830152604082019050919050565b61199881611c13565b82525050565b6119a781611c1d565b82525050565b60006020820190506119c26000830184611892565b92915050565b60006020820190506119dd60008301846118a1565b92915050565b600060208201905081810360008301526119fd81846118b0565b905092915050565b60006020820190508181036000830152611a1e816118e9565b9050919050565b60006020820190508181036000830152611a3e81611929565b9050919050565b6000602082019050611a5a600083018461198f565b92915050565b6000604082019050611a75600083018561198f565b611a82602083018461198f565b9392505050565b6000602082019050611a9e600083018461199e565b92915050565b600081519050919050565b600082825260208201905092915050565b6000611acb82611c13565b9150611ad683611c13565b9250827fffffffffffffffffffffffffffffffffffffffffffffffffffffffffffffffff03821115611b0b57611b0a611c8f565b5b828201905092915050565b6000611b2182611c13565b9150611b2c83611c13565b925082611b3c57611b3b611cbe565b5b828204905092915050565b6000611b5282611c13565b9150611b5d83611c13565b9250817fffffffffffffffffffffffffffffffffffffffffffffffffffffffffffffffff0483118215151615611b9657611b95611c8f565b5b828202905092915050565b6000611bac82611c13565b9150611bb783611c13565b925082821015611bca57611bc9611c8f565b5b828203905092915050565b6000611be082611bf3565b9050919050565b60008115159050919050565b600073ffffffffffffffffffffffffffffffffffffffff82169050919050565b6000819050919050565b600060ff82169050919050565b60005b83811015611c48578082015181840152602081019050611c2d565b83811115611c57576000848401525b50505050565b60006002820490506001821680611c7557607f821691505b60208210811415611c8957611c88611ced565b5b50919050565b7f4e487b7100000000000000000000000000000000000000000000000000000000600052601160045260246000fd5b7f4e487b7100000000000000000000000000000000000000000000000000000000600052601260045260246000fd5b7f4e487b7100000000000000000000000000000000000000000000000000000000600052602260045260246000fd5b6000601f19601f8301169050919050565b611d3681611bd5565b8114611d4157600080fd5b50565b611d4d81611c13565b8114611d5857600080fd5b5056fea26469706673582212208ae97c81b91a25714570150d3985c7e423dd0043a21ee535eff955f79c84cc3964736f6c63430008000033",
  "immutableReferences": {},
  "source": "// SPDX-License-Identifier: MIT\npragma solidity ^0.8.0;\n\ninterface IERC20 {\n\n    function totalSupply() external view returns (uint256);\n    function balanceOf(address account) external view returns (uint256);\n    function allowance(address owner, address spender) external view returns (uint256);\n\n    function transfer(uint256 numTokens) payable external returns (bool);\n    function approve(address spender, uint256 amount) external returns (bool);\n    function transferFrom(address sender, address recipient, uint256 amount) external returns (bool);\n\n\n    event Transfer(address indexed from, address indexed to, uint256 value);\n    event Approval(address indexed owner, address indexed spender, uint256 value);\n    event TokenBuy(address indexed sender,address indexed receiver,uint256 fundTransfered,uint256 tokensIssued);\n}\n\n\ncontract ICO is IERC20 {\n\n   \n    string public  name ;\n    string public  symbol ;\n    uint8 public  decimals ;\n    address payable mowner ;\n    uint256 check;\n\n\n    mapping(address => uint256) balances;\n\n    mapping(address => mapping (address => uint256)) allowed;\n\n    uint256 totalSupply_ = 1000*10**18;\n    \n     address[] public  savingData;\n    \n\n   constructor(uint256 initialSupply) {\n    name = \"RATAN_JETHALA_COIN\";\n    symbol = \"RJC\";\n    decimals = 18;\n    balances[msg.sender] = initialSupply * 10**18;\n    check = initialSupply * 10**18;\n    mowner = payable(msg.sender);\n    }\n\n    function totalSupply() public override view returns (uint256) {\n    return totalSupply_;\n    }\n\n    function balanceOf(address tokenOwner) public override view returns (uint256) {\n        return balances[tokenOwner];\n    }\n\n    function transfer(uint256 numTokens) public payable override returns (bool) {\n        mowner.transfer(msg.value);\n        balances[mowner] -= (numTokens);\n        balances[msg.sender] += (numTokens);\n        emit TokenBuy(msg.sender, mowner, msg.value, numTokens);\n        return true;\n    }\n\n    function calculatedToken(uint256 numTokens)public view returns (uint256 _tokenAssign){\n        uint256 numTokens1 = 0;\n        uint256 numTokens2 = 0;\n        uint256 numTokens3 = 0;\n        uint256 numTokens4 = 0;\n        uint256 e_numTokens1 = 0;\n        uint256 e_numTokens2 = 0;\n        uint256 e_numTokens3 = 0;\n        uint256 e_numTokens4 = 0;\n        uint256 rj = 0;\n        if (numTokens > (check * 25) / 100) {\n            numTokens1 = numTokens - (check * 25) / 100;\n            e_numTokens1 = (check * 25) / 100;\n            rj = rj + e_numTokens1;\n            if (numTokens1 > (check * 50) / 100) {\n                numTokens2 = numTokens1 - (check * 50) / 100;\n                e_numTokens2 = (check * 25) / 100;\n                rj = rj + e_numTokens2;\n            } else {\n                e_numTokens2 = numTokens1 / 2;\n                rj = rj + e_numTokens2;\n            }\n            if (numTokens2 > (check * 75) / 100) {\n                numTokens3 = numTokens2 - (check * 75) / 100;\n                e_numTokens3 = (check * 25) / 100;\n                rj = rj + e_numTokens3;\n            } else {\n                e_numTokens3 = numTokens2 / 3;\n                rj = rj + e_numTokens3;\n            }\n            if (numTokens3 >= (check * 100) / 100) {\n                numTokens4 = numTokens3 - (check * 100) / 100;\n                e_numTokens4 = (check * 100) / 100;\n                rj = rj + e_numTokens3;\n            } else {\n                e_numTokens4 = numTokens3 / 4;\n                rj = rj + e_numTokens4;\n            }\n        } else {\n            rj = rj + numTokens;\n        }\n        return rj;\n    }\n\n    function buyTokensWithEther(uint256 numTokens) public payable {\n        numTokens = numTokens * 10**18;\n        if (msg.value > ((check * 25) / 100) * 10) {\n            revert(\"Tu aamir hai bhai humse na hopyega\");\n        } else {\n            if (\n                balances[mowner] > (check * 75) / 100 &&\n                balances[mowner] <= (check * 100) / 100\n            ) {\n                transfer(calculatedToken(numTokens));\n            } else if (\n                balances[mowner] > (check * 50) / 100 &&\n                balances[mowner] <= (check * 75) / 100\n            ) {\n                transfer(calculatedToken(numTokens) / 2);\n            } else if (\n                balances[mowner] > (check * 25) / 100 &&\n                balances[mowner] <= ((check * 50) / 100)\n            ) {\n                transfer(calculatedToken(numTokens) / 3);\n            } else if (\n                balances[mowner] > (check * 1) / 100 &&\n                balances[mowner] <= (check * 25) / 100\n            ) {\n                transfer(calculatedToken(numTokens) / 4);\n            }\n        }\n    }\n\n    function initialSupplyCheck() public view returns (uint256) {\n        return check;\n    }\n\n    function approve(address delegate, uint256 numTokens) public override returns (bool) {\n        allowed[mowner][delegate] = numTokens;\n        emit Approval(mowner, delegate, numTokens);\n        return true;\n    }\n\n    function allowance(address owner, address delegate) public override view returns (uint) {\n        return allowed[owner][delegate];\n    }\n\n    function transferFrom(address owner, address buyer, uint256 numTokens) public override returns (bool) {\n        require(numTokens <= balances[owner]);\n        require(numTokens <= allowed[owner][mowner]);\n\n        balances[owner] = balances[owner]-numTokens;\n        allowed[owner][mowner] = allowed[owner][mowner]-numTokens;\n        balances[buyer] = balances[buyer]+numTokens;\n        emit Transfer(owner, buyer, numTokens);\n        return true;\n    }\n     modifier OwnerOnly(){\n     require(mowner == mowner ,'you Are Not Owner');\n     _;\n    }\n    \n    function ownerId() public view returns(address){\n        return mowner;\n    }\n     function tokenBadha(uint _x) public OwnerOnly {\n         totalSupply_ = totalSupply_+_x;\n         balances[mowner] = totalSupply_;\n     }\n     function tokenGhata(uint _x) public OwnerOnly {\n         totalSupply_ = totalSupply_-_x;\n         balances[mowner] = totalSupply_;\n     }\n}",
  "sourcePath": "/home/rajnishyadav/Downloads/React/2_merging ReactToBlockchain/ico/src/truffle/contracts/ICO.sol",
  "compiler": {
    "name": "solc",
    "version": "0.8.0+commit.c7dfd78e.Emscripten.clang"
  },
  "schemaVersion": "3.2.2-next.0",
  "updatedAt": "2022-07-29T07:01:46.431Z",
  "networkType": "ethereum",
  "devdoc": {
    "kind": "dev",
    "methods": {},
    "version": 1
  },
  "userdoc": {
    "kind": "user",
    "methods": {},
    "version": 1
  }
}