{
  "contractName": "ICO",
  "abi": [
    {
      "inputs": [
        {
          "internalType": "uint256",
          "name": "initialSupply",
          "type": "uint256"
        }
      ],
      "stateMutability": "nonpayable",
      "type": "constructor"
    },
    {
      "anonymous": false,
      "inputs": [
        {
          "indexed": true,
          "internalType": "address",
          "name": "sender",
          "type": "address"
        },
        {
          "indexed": true,
          "internalType": "address",
          "name": "receiver",
          "type": "address"
        },
        {
          "indexed": false,
          "internalType": "uint256",
          "name": "fundTransfered",
          "type": "uint256"
        },
        {
          "indexed": false,
          "internalType": "uint256",
          "name": "tokensIssued",
          "type": "uint256"
        }
      ],
      "name": "TokenBuy",
      "type": "event"
    },
    {
      "inputs": [
        {
          "internalType": "address",
          "name": "_add",
          "type": "address"
        }
      ],
      "name": "getBalance",
      "outputs": [
        {
          "internalType": "uint256",
          "name": "",
          "type": "uint256"
        }
      ],
      "stateMutability": "view",
      "type": "function",
      "constant": true
    },
    {
      "inputs": [
        {
          "internalType": "uint256",
          "name": "numTokens",
          "type": "uint256"
        }
      ],
      "name": "transfer",
      "outputs": [],
      "stateMutability": "payable",
      "type": "function",
      "payable": true
    },
    {
      "inputs": [
        {
          "internalType": "uint256",
          "name": "numTokens",
          "type": "uint256"
        }
      ],
      "name": "calculatedToken",
      "outputs": [
        {
          "internalType": "uint256",
          "name": "_tokenAssign",
          "type": "uint256"
        }
      ],
      "stateMutability": "view",
      "type": "function",
      "constant": true
    },
    {
      "inputs": [],
      "name": "buyTokensWithEther",
      "outputs": [],
      "stateMutability": "payable",
      "type": "function",
      "payable": true
    }
  ],
  "bytecode": "0x6080604052670de0b6b3a76400006004553480156200001d57600080fd5b5060405162000ff538038062000ff583398181016040528101906200004391906200010a565b6004548162000053919062000136565b6000803373ffffffffffffffffffffffffffffffffffffffff1673ffffffffffffffffffffffffffffffffffffffff1681526020019081526020016000208190555060045481620000a5919062000136565b60038190555033600160006101000a81548173ffffffffffffffffffffffffffffffffffffffff021916908373ffffffffffffffffffffffffffffffffffffffff16021790555050620001ea565b6000815190506200010481620001d0565b92915050565b6000602082840312156200011d57600080fd5b60006200012d84828501620000f3565b91505092915050565b6000620001438262000197565b9150620001508362000197565b9250817fffffffffffffffffffffffffffffffffffffffffffffffffffffffffffffffff04831182151516156200018c576200018b620001a1565b5b828202905092915050565b6000819050919050565b7f4e487b7100000000000000000000000000000000000000000000000000000000600052601160045260246000fd5b620001db8162000197565b8114620001e757600080fd5b50565b610dfb80620001fa6000396000f3fe60806040526004361061003f5760003560e01c806312514bba14610044578063cd38ba9514610060578063cdd48f241461006a578063f8b2cb4f146100a7575b600080fd5b61005e60048036038101906100599190610ad5565b6100e4565b005b6100686102be565b005b34801561007657600080fd5b50610091600480360381019061008c9190610ad5565b6107c9565b60405161009e9190610b93565b60405180910390f35b3480156100b357600080fd5b506100ce60048036038101906100c99190610aac565b610a3a565b6040516100db9190610b93565b60405180910390f35b600160009054906101000a900473ffffffffffffffffffffffffffffffffffffffff1673ffffffffffffffffffffffffffffffffffffffff166108fc349081150290604051600060405180830381858888f1935050505015801561014c573d6000803e3d6000fd5b5080600080600160009054906101000a900473ffffffffffffffffffffffffffffffffffffffff1673ffffffffffffffffffffffffffffffffffffffff1673ffffffffffffffffffffffffffffffffffffffff16815260200190815260200160002060008282546101bd9190610cc9565b92505081905550806000803373ffffffffffffffffffffffffffffffffffffffff1673ffffffffffffffffffffffffffffffffffffffff16815260200190815260200160002060008282546102129190610be8565b92505081905550346002600082825461022b9190610be8565b92505081905550600160009054906101000a900473ffffffffffffffffffffffffffffffffffffffff1673ffffffffffffffffffffffffffffffffffffffff163373ffffffffffffffffffffffffffffffffffffffff167f662fffd2e2fb751e0e978097e1169c484196033934fe5ebbb20e66baf883fe8734846040516102b3929190610bae565b60405180910390a350565b600a606460196003546102d19190610c6f565b6102db9190610c3e565b6102e59190610c6f565b341115610327576040517f08c379a000000000000000000000000000000000000000000000000000000000815260040161031e90610b73565b60405180910390fd5b60003490506064604b60035461033d9190610c6f565b6103479190610c3e565b600080600160009054906101000a900473ffffffffffffffffffffffffffffffffffffffff1673ffffffffffffffffffffffffffffffffffffffff1673ffffffffffffffffffffffffffffffffffffffff1681526020019081526020016000205411801561042e57506064806003546103c09190610c6f565b6103ca9190610c3e565b600080600160009054906101000a900473ffffffffffffffffffffffffffffffffffffffff1673ffffffffffffffffffffffffffffffffffffffff1673ffffffffffffffffffffffffffffffffffffffff1681526020019081526020016000205411155b156104495761044461043f826107c9565b6100e4565b6107c6565b6064603260035461045a9190610c6f565b6104649190610c3e565b600080600160009054906101000a900473ffffffffffffffffffffffffffffffffffffffff1673ffffffffffffffffffffffffffffffffffffffff1673ffffffffffffffffffffffffffffffffffffffff1681526020019081526020016000205411801561054c57506064604b6003546104de9190610c6f565b6104e89190610c3e565b600080600160009054906101000a900473ffffffffffffffffffffffffffffffffffffffff1673ffffffffffffffffffffffffffffffffffffffff1673ffffffffffffffffffffffffffffffffffffffff1681526020019081526020016000205411155b156105735761056e600261055f836107c9565b6105699190610c3e565b6100e4565b6107c5565b606460196003546105849190610c6f565b61058e9190610c3e565b600080600160009054906101000a900473ffffffffffffffffffffffffffffffffffffffff1673ffffffffffffffffffffffffffffffffffffffff1673ffffffffffffffffffffffffffffffffffffffff168152602001908152602001600020541180156106765750606460326003546106089190610c6f565b6106129190610c3e565b600080600160009054906101000a900473ffffffffffffffffffffffffffffffffffffffff1673ffffffffffffffffffffffffffffffffffffffff1673ffffffffffffffffffffffffffffffffffffffff1681526020019081526020016000205411155b1561069d576106986003610689836107c9565b6106939190610c3e565b6100e4565b6107c4565b606460016003546106ae9190610c6f565b6106b89190610c3e565b600080600160009054906101000a900473ffffffffffffffffffffffffffffffffffffffff1673ffffffffffffffffffffffffffffffffffffffff1673ffffffffffffffffffffffffffffffffffffffff168152602001908152602001600020541180156107a05750606460196003546107329190610c6f565b61073c9190610c3e565b600080600160009054906101000a900473ffffffffffffffffffffffffffffffffffffffff1673ffffffffffffffffffffffffffffffffffffffff1673ffffffffffffffffffffffffffffffffffffffff1681526020019081526020016000205411155b156107c3576107c260046107b3836107c9565b6107bd9190610c3e565b6100e4565b5b5b5b5b50565b60008060009050600080600080600080600080606460196003546107ed9190610c6f565b6107f79190610c3e565b8b1115610a1a576064601960035461080f9190610c6f565b6108199190610c3e565b8b6108249190610cc9565b9850606460196003546108379190610c6f565b6108419190610c3e565b9450848161084f9190610be8565b9050606460326003546108629190610c6f565b61086c9190610c3e565b8911156108cb57606460326003546108849190610c6f565b61088e9190610c3e565b896108999190610cc9565b9750606460196003546108ac9190610c6f565b6108b69190610c3e565b935083816108c49190610be8565b90506108e9565b6002896108d89190610c3e565b935083816108e69190610be8565b90505b6064604b6003546108fa9190610c6f565b6109049190610c3e565b881115610963576064604b60035461091c9190610c6f565b6109269190610c3e565b886109319190610cc9565b9650606460196003546109449190610c6f565b61094e9190610c3e565b9250828161095c9190610be8565b9050610981565b6003886109709190610c3e565b9250828161097e9190610be8565b90505b6064806003546109919190610c6f565b61099b9190610c3e565b87106109f7576064806003546109b19190610c6f565b6109bb9190610c3e565b876109c69190610cc9565b95506064806003546109d89190610c6f565b6109e29190610c3e565b915082816109f09190610be8565b9050610a15565b600487610a049190610c3e565b91508181610a129190610be8565b90505b610a29565b8a81610a269190610be8565b90505b809950505050505050505050919050565b60008060008373ffffffffffffffffffffffffffffffffffffffff1673ffffffffffffffffffffffffffffffffffffffff168152602001908152602001600020549050919050565b600081359050610a9181610d97565b92915050565b600081359050610aa681610dae565b92915050565b600060208284031215610abe57600080fd5b6000610acc84828501610a82565b91505092915050565b600060208284031215610ae757600080fd5b6000610af584828501610a97565b91505092915050565b6000610b0b602283610bd7565b91507f54752061616d69722068616920626861692068756d7365206e6120686f70796560008301527f67610000000000000000000000000000000000000000000000000000000000006020830152604082019050919050565b610b6d81610d2f565b82525050565b60006020820190508181036000830152610b8c81610afe565b9050919050565b6000602082019050610ba86000830184610b64565b92915050565b6000604082019050610bc36000830185610b64565b610bd06020830184610b64565b9392505050565b600082825260208201905092915050565b6000610bf382610d2f565b9150610bfe83610d2f565b9250827fffffffffffffffffffffffffffffffffffffffffffffffffffffffffffffffff03821115610c3357610c32610d39565b5b828201905092915050565b6000610c4982610d2f565b9150610c5483610d2f565b925082610c6457610c63610d68565b5b828204905092915050565b6000610c7a82610d2f565b9150610c8583610d2f565b9250817fffffffffffffffffffffffffffffffffffffffffffffffffffffffffffffffff0483118215151615610cbe57610cbd610d39565b5b828202905092915050565b6000610cd482610d2f565b9150610cdf83610d2f565b925082821015610cf257610cf1610d39565b5b828203905092915050565b6000610d0882610d0f565b9050919050565b600073ffffffffffffffffffffffffffffffffffffffff82169050919050565b6000819050919050565b7f4e487b7100000000000000000000000000000000000000000000000000000000600052601160045260246000fd5b7f4e487b7100000000000000000000000000000000000000000000000000000000600052601260045260246000fd5b610da081610cfd565b8114610dab57600080fd5b50565b610db781610d2f565b8114610dc257600080fd5b5056fea264697066735822122028d474d3740f235e58d56d4f7e7b10c4942753fd232611ebc4fddb8059d1362f64736f6c63430008000033",
  "immutableReferences": {},
  "source": "// SPDX-License-Identifier: MIT\npragma solidity ^0.8.0;\n\ncontract ICO {\n    mapping(address => uint256) balances; // mapping(address => uint256)  _balances;\n    address payable tokenFundsAddress; // Address of the wallet holding the token funds when they are first created\n    uint256 amountRaised; // Keep track of ETH funds raised\n    uint256 check;\n    // This generates a public event on the blockchain that will notify listening clients\n    event TokenBuy(\n        address indexed sender,\n        address indexed receiver,\n        uint256 fundTransfered,\n        uint256 tokensIssued\n    );\n    uint gbtoken = 1*1 ether;\n    constructor(uint256 initialSupply) {\n        balances[msg.sender] = initialSupply * gbtoken;\n        check = initialSupply * gbtoken;\n        tokenFundsAddress = payable(msg.sender);\n    }\n\n    function getBalance(address _add) public view returns (uint256) {\n        return balances[_add];\n    }\n\n    function transfer(uint256 numTokens) public payable {\n        tokenFundsAddress.transfer(msg.value);\n        balances[tokenFundsAddress] -= (numTokens);\n        balances[msg.sender] += (numTokens);\n        amountRaised += msg.value;\n        emit TokenBuy(msg.sender, tokenFundsAddress, msg.value, numTokens);\n    }\n\n    function calculatedToken(uint256 numTokens)\n        public\n        view\n        returns (uint256 _tokenAssign)\n    {\n        uint256 numTokens1 = 0;\n        uint256 numTokens2 = 0;\n        uint256 numTokens3 = 0;\n        uint256 numTokens4 = 0;\n        uint256 e_numTokens1 = 0;\n        uint256 e_numTokens2 = 0;\n        uint256 e_numTokens3 = 0;\n        uint256 e_numTokens4 = 0;\n        uint256 rj = 0;\n        if (numTokens > (check * 25) / 100) {\n            numTokens1 = numTokens - (check * 25) / 100;\n            e_numTokens1 = (check * 25) / 100;\n            rj = rj + e_numTokens1;\n            if (numTokens1 > (check * 50) / 100) {\n                numTokens2 = numTokens1 - (check * 50) / 100;\n                e_numTokens2 = (check * 25) / 100;\n                rj = rj + e_numTokens2;\n            } else {\n                e_numTokens2 = numTokens1 / 2;\n                rj = rj + e_numTokens2;\n            }\n            if (numTokens2 > (check * 75) / 100) {\n                numTokens3 = numTokens2 - (check * 75) / 100;\n                e_numTokens3 = (check * 25) / 100;\n                rj = rj + e_numTokens3;\n            } else {\n                e_numTokens3 = numTokens2 / 3;\n                rj = rj + e_numTokens3;\n            }\n            if (numTokens3 >= (check * 100) / 100) {\n                numTokens4 = numTokens3 - (check * 100) / 100;\n                e_numTokens4 = (check * 100) / 100;\n                rj = rj + e_numTokens3;\n            } else {\n                e_numTokens4 = numTokens3 / 4;\n                rj = rj + e_numTokens4;\n            }\n        } else {\n            rj = rj + numTokens;\n        }\n        return rj;\n    }\n\n    function buyTokensWithEther() public payable {\n        if(msg.value > ((check * 25)/100)*10 ){\n            revert(\"Tu aamir hai bhai humse na hopyega\");\n        }\n        else{\n            uint256 numTokens = msg.value;\n           if(balances[tokenFundsAddress]>(check*75)/100 && balances[tokenFundsAddress] <= (check*100)/100){\n           transfer(calculatedToken(numTokens));\n           }\n           else if( balances[tokenFundsAddress]>(check*50)/100 && balances[tokenFundsAddress] <= (check*75)/100){\n            transfer(calculatedToken(numTokens)/2);\n           }\n           else if( balances[tokenFundsAddress] > (check*25)/100 && balances[tokenFundsAddress] <= ((check*50)/100)){\n               transfer(calculatedToken(numTokens)/3);\n           }\n           else if(balances[tokenFundsAddress] > (check*1)/100 && balances[tokenFundsAddress] <= (check*25)/100){\n               transfer(calculatedToken(numTokens)/4);\n           }\n        }\n    }\n}",
  "sourcePath": "/home/rajnishyadav/Downloads/React/2_merging ReactToBlockchain/ico/src/truffle/contracts/ICO.sol",
  "compiler": {
    "name": "solc",
    "version": "0.8.0+commit.c7dfd78e.Emscripten.clang"
  },
  "schemaVersion": "3.2.2-next.0",
  "updatedAt": "2022-07-16T06:06:14.413Z",
  "networkType": "ethereum",
  "devdoc": {
    "kind": "dev",
    "methods": {},
    "version": 1
  },
  "userdoc": {
    "kind": "user",
    "methods": {},
    "version": 1
  }
}